{
  "_format": "hh-sol-artifact-1",
  "contractName": "BSCIAMAuth",
  "sourceName": "contracts/BSCIAMAuth.sol",
  "abi": [
    {
      "inputs": [
        {
          "internalType": "address",
          "name": "_tokenAddress",
          "type": "address"
        }
      ],
      "stateMutability": "nonpayable",
      "type": "constructor"
    },
    {
      "inputs": [],
      "name": "EnforcedPause",
      "type": "error"
    },
    {
      "inputs": [],
      "name": "ExpectedPause",
      "type": "error"
    },
    {
      "inputs": [
        {
          "internalType": "address",
          "name": "owner",
          "type": "address"
        }
      ],
      "name": "OwnableInvalidOwner",
      "type": "error"
    },
    {
      "inputs": [
        {
          "internalType": "address",
          "name": "account",
          "type": "address"
        }
      ],
      "name": "OwnableUnauthorizedAccount",
      "type": "error"
    },
    {
      "inputs": [],
      "name": "ReentrancyGuardReentrantCall",
      "type": "error"
    },
    {
      "anonymous": false,
      "inputs": [
        {
          "indexed": true,
          "internalType": "address",
          "name": "user",
          "type": "address"
        },
        {
          "indexed": false,
          "internalType": "string",
          "name": "resource",
          "type": "string"
        },
        {
          "indexed": false,
          "internalType": "string",
          "name": "action",
          "type": "string"
        }
      ],
      "name": "AccessDenied",
      "type": "event"
    },
    {
      "anonymous": false,
      "inputs": [
        {
          "indexed": true,
          "internalType": "address",
          "name": "user",
          "type": "address"
        },
        {
          "indexed": false,
          "internalType": "string",
          "name": "resource",
          "type": "string"
        },
        {
          "indexed": false,
          "internalType": "string",
          "name": "action",
          "type": "string"
        }
      ],
      "name": "AccessGranted",
      "type": "event"
    },
    {
      "anonymous": false,
      "inputs": [
        {
          "indexed": true,
          "internalType": "address",
          "name": "user",
          "type": "address"
        },
        {
          "indexed": false,
          "internalType": "string",
          "name": "resource",
          "type": "string"
        },
        {
          "indexed": false,
          "internalType": "string",
          "name": "action",
          "type": "string"
        },
        {
          "indexed": false,
          "internalType": "uint256",
          "name": "requestId",
          "type": "uint256"
        }
      ],
      "name": "AccessRequested",
      "type": "event"
    },
    {
      "anonymous": false,
      "inputs": [
        {
          "indexed": true,
          "internalType": "address",
          "name": "previousOwner",
          "type": "address"
        },
        {
          "indexed": true,
          "internalType": "address",
          "name": "newOwner",
          "type": "address"
        }
      ],
      "name": "OwnershipTransferred",
      "type": "event"
    },
    {
      "anonymous": false,
      "inputs": [
        {
          "indexed": false,
          "internalType": "address",
          "name": "account",
          "type": "address"
        }
      ],
      "name": "Paused",
      "type": "event"
    },
    {
      "anonymous": false,
      "inputs": [
        {
          "indexed": true,
          "internalType": "address",
          "name": "user",
          "type": "address"
        },
        {
          "indexed": false,
          "internalType": "uint256",
          "name": "newScore",
          "type": "uint256"
        }
      ],
      "name": "ReputationUpdated",
      "type": "event"
    },
    {
      "anonymous": false,
      "inputs": [
        {
          "indexed": true,
          "internalType": "address",
          "name": "resource",
          "type": "address"
        },
        {
          "indexed": true,
          "internalType": "address",
          "name": "owner",
          "type": "address"
        }
      ],
      "name": "ResourceAuthorized",
      "type": "event"
    },
    {
      "anonymous": false,
      "inputs": [
        {
          "indexed": false,
          "internalType": "address",
          "name": "account",
          "type": "address"
        }
      ],
      "name": "Unpaused",
      "type": "event"
    },
    {
      "anonymous": false,
      "inputs": [
        {
          "indexed": true,
          "internalType": "address",
          "name": "user",
          "type": "address"
        },
        {
          "indexed": false,
          "internalType": "string",
          "name": "username",
          "type": "string"
        },
        {
          "indexed": false,
          "internalType": "string",
          "name": "email",
          "type": "string"
        }
      ],
      "name": "UserRegistered",
      "type": "event"
    },
    {
      "inputs": [],
      "name": "REGISTRATION_FEE",
      "outputs": [
        {
          "internalType": "uint256",
          "name": "",
          "type": "uint256"
        }
      ],
      "stateMutability": "view",
      "type": "function"
    },
    {
      "inputs": [],
      "name": "REPUTATION_REWARD",
      "outputs": [
        {
          "internalType": "uint256",
          "name": "",
          "type": "uint256"
        }
      ],
      "stateMutability": "view",
      "type": "function"
    },
    {
      "inputs": [
        {
          "internalType": "address",
          "name": "_user",
          "type": "address"
        }
      ],
      "name": "activateUser",
      "outputs": [],
      "stateMutability": "nonpayable",
      "type": "function"
    },
    {
      "inputs": [
        {
          "internalType": "address",
          "name": "_user",
          "type": "address"
        },
        {
          "internalType": "string",
          "name": "_role",
          "type": "string"
        }
      ],
      "name": "addAccessRole",
      "outputs": [],
      "stateMutability": "nonpayable",
      "type": "function"
    },
    {
      "inputs": [
        {
          "internalType": "address",
          "name": "_user",
          "type": "address"
        },
        {
          "internalType": "uint256",
          "name": "_requestId",
          "type": "uint256"
        },
        {
          "internalType": "bool",
          "name": "_approved",
          "type": "bool"
        }
      ],
      "name": "approveAccess",
      "outputs": [],
      "stateMutability": "nonpayable",
      "type": "function"
    },
    {
      "inputs": [
        {
          "internalType": "address",
          "name": "_resource",
          "type": "address"
        }
      ],
      "name": "authorizeResource",
      "outputs": [],
      "stateMutability": "nonpayable",
      "type": "function"
    },
    {
      "inputs": [
        {
          "internalType": "address",
          "name": "",
          "type": "address"
        }
      ],
      "name": "authorizedResources",
      "outputs": [
        {
          "internalType": "bool",
          "name": "",
          "type": "bool"
        }
      ],
      "stateMutability": "view",
      "type": "function"
    },
    {
      "inputs": [],
      "name": "bsciamToken",
      "outputs": [
        {
          "internalType": "contract BSCIAMToken",
          "name": "",
          "type": "address"
        }
      ],
      "stateMutability": "view",
      "type": "function"
    },
    {
      "inputs": [
        {
          "internalType": "address",
          "name": "_user",
          "type": "address"
        }
      ],
      "name": "deactivateUser",
      "outputs": [],
      "stateMutability": "nonpayable",
      "type": "function"
    },
    {
      "inputs": [
        {
          "internalType": "address",
          "name": "_user",
          "type": "address"
        },
        {
          "internalType": "uint256",
          "name": "_requestId",
          "type": "uint256"
        }
      ],
      "name": "getAccessRequest",
      "outputs": [
        {
          "components": [
            {
              "internalType": "address",
              "name": "requester",
              "type": "address"
            },
            {
              "internalType": "string",
              "name": "resource",
              "type": "string"
            },
            {
              "internalType": "string",
              "name": "action",
              "type": "string"
            },
            {
              "internalType": "uint256",
              "name": "timestamp",
              "type": "uint256"
            },
            {
              "internalType": "bool",
              "name": "isApproved",
              "type": "bool"
            },
            {
              "internalType": "bool",
              "name": "isProcessed",
              "type": "bool"
            }
          ],
          "internalType": "struct BSCIAMAuth.AccessRequest",
          "name": "",
          "type": "tuple"
        }
      ],
      "stateMutability": "view",
      "type": "function"
    },
    {
      "inputs": [
        {
          "internalType": "address",
          "name": "_user",
          "type": "address"
        }
      ],
      "name": "getUserAccessRequests",
      "outputs": [
        {
          "components": [
            {
              "internalType": "address",
              "name": "requester",
              "type": "address"
            },
            {
              "internalType": "string",
              "name": "resource",
              "type": "string"
            },
            {
              "internalType": "string",
              "name": "action",
              "type": "string"
            },
            {
              "internalType": "uint256",
              "name": "timestamp",
              "type": "uint256"
            },
            {
              "internalType": "bool",
              "name": "isApproved",
              "type": "bool"
            },
            {
              "internalType": "bool",
              "name": "isProcessed",
              "type": "bool"
            }
          ],
          "internalType": "struct BSCIAMAuth.AccessRequest[]",
          "name": "",
          "type": "tuple[]"
        }
      ],
      "stateMutability": "view",
      "type": "function"
    },
    {
      "inputs": [
        {
          "internalType": "address",
          "name": "_user",
          "type": "address"
        }
      ],
      "name": "getUserProfile",
      "outputs": [
        {
          "components": [
            {
              "internalType": "address",
              "name": "walletAddress",
              "type": "address"
            },
            {
              "internalType": "string",
              "name": "username",
              "type": "string"
            },
            {
              "internalType": "string",
              "name": "email",
              "type": "string"
            },
            {
              "internalType": "uint256",
              "name": "registrationTime",
              "type": "uint256"
            },
            {
              "internalType": "bool",
              "name": "isActive",
              "type": "bool"
            },
            {
              "internalType": "uint256",
              "name": "reputationScore",
              "type": "uint256"
            },
            {
              "internalType": "string[]",
              "name": "accessRoles",
              "type": "string[]"
            }
          ],
          "internalType": "struct BSCIAMAuth.UserProfile",
          "name": "",
          "type": "tuple"
        }
      ],
      "stateMutability": "view",
      "type": "function"
    },
    {
      "inputs": [],
      "name": "owner",
      "outputs": [
        {
          "internalType": "address",
          "name": "",
          "type": "address"
        }
      ],
      "stateMutability": "view",
      "type": "function"
    },
    {
      "inputs": [],
      "name": "pause",
      "outputs": [],
      "stateMutability": "nonpayable",
      "type": "function"
    },
    {
      "inputs": [],
      "name": "paused",
      "outputs": [
        {
          "internalType": "bool",
          "name": "",
          "type": "bool"
        }
      ],
      "stateMutability": "view",
      "type": "function"
    },
    {
      "inputs": [
        {
          "internalType": "string",
          "name": "_username",
          "type": "string"
        },
        {
          "internalType": "string",
          "name": "_email",
          "type": "string"
        }
      ],
      "name": "registerUser",
      "outputs": [],
      "stateMutability": "nonpayable",
      "type": "function"
    },
    {
      "inputs": [
        {
          "internalType": "address",
          "name": "",
          "type": "address"
        }
      ],
      "name": "registeredUsers",
      "outputs": [
        {
          "internalType": "bool",
          "name": "",
          "type": "bool"
        }
      ],
      "stateMutability": "view",
      "type": "function"
    },
    {
      "inputs": [
        {
          "internalType": "address",
          "name": "_user",
          "type": "address"
        },
        {
          "internalType": "uint256",
          "name": "_roleIndex",
          "type": "uint256"
        }
      ],
      "name": "removeAccessRole",
      "outputs": [],
      "stateMutability": "nonpayable",
      "type": "function"
    },
    {
      "inputs": [],
      "name": "renounceOwnership",
      "outputs": [],
      "stateMutability": "nonpayable",
      "type": "function"
    },
    {
      "inputs": [
        {
          "internalType": "string",
          "name": "_resource",
          "type": "string"
        },
        {
          "internalType": "string",
          "name": "_action",
          "type": "string"
        }
      ],
      "name": "requestAccess",
      "outputs": [],
      "stateMutability": "nonpayable",
      "type": "function"
    },
    {
      "inputs": [
        {
          "internalType": "address",
          "name": "newOwner",
          "type": "address"
        }
      ],
      "name": "transferOwnership",
      "outputs": [],
      "stateMutability": "nonpayable",
      "type": "function"
    },
    {
      "inputs": [],
      "name": "unpause",
      "outputs": [],
      "stateMutability": "nonpayable",
      "type": "function"
    },
    {
      "inputs": [
        {
          "internalType": "address",
          "name": "_user",
          "type": "address"
        },
        {
          "internalType": "uint256",
          "name": "_scoreChange",
          "type": "uint256"
        }
      ],
      "name": "updateReputation",
      "outputs": [],
      "stateMutability": "nonpayable",
      "type": "function"
    },
    {
      "inputs": [
        {
          "internalType": "address",
          "name": "",
          "type": "address"
        },
        {
          "internalType": "uint256",
          "name": "",
          "type": "uint256"
        }
      ],
      "name": "userAccessRequests",
      "outputs": [
        {
          "internalType": "address",
          "name": "requester",
          "type": "address"
        },
        {
          "internalType": "string",
          "name": "resource",
          "type": "string"
        },
        {
          "internalType": "string",
          "name": "action",
          "type": "string"
        },
        {
          "internalType": "uint256",
          "name": "timestamp",
          "type": "uint256"
        },
        {
          "internalType": "bool",
          "name": "isApproved",
          "type": "bool"
        },
        {
          "internalType": "bool",
          "name": "isProcessed",
          "type": "bool"
        }
      ],
      "stateMutability": "view",
      "type": "function"
    },
    {
      "inputs": [
        {
          "internalType": "address",
          "name": "",
          "type": "address"
        }
      ],
      "name": "userProfiles",
      "outputs": [
        {
          "internalType": "address",
          "name": "walletAddress",
          "type": "address"
        },
        {
          "internalType": "string",
          "name": "username",
          "type": "string"
        },
        {
          "internalType": "string",
          "name": "email",
          "type": "string"
        },
        {
          "internalType": "uint256",
          "name": "registrationTime",
          "type": "uint256"
        },
        {
          "internalType": "bool",
          "name": "isActive",
          "type": "bool"
        },
        {
          "internalType": "uint256",
          "name": "reputationScore",
          "type": "uint256"
        }
      ],
      "stateMutability": "view",
      "type": "function"
    },
    {
      "inputs": [
        {
          "internalType": "string",
          "name": "",
          "type": "string"
        }
      ],
      "name": "usernameToAddress",
      "outputs": [
        {
          "internalType": "address",
          "name": "",
          "type": "address"
        }
      ],
      "stateMutability": "view",
      "type": "function"
    },
    {
      "inputs": [],
      "name": "withdrawTokens",
      "outputs": [],
      "stateMutability": "nonpayable",
      "type": "function"
    }
  ],
  "bytecode": "0x60806040523480156200001157600080fd5b50604051620029ec380380620029ec8339810160408190526200003491620000e4565b600160005533806200006057604051631e4fbdf760e01b81526000600482015260240160405180910390fd5b6200006b8162000092565b50600280546001600160a01b0319166001600160a01b039290921691909117905562000116565b600180546001600160a01b038381166001600160a01b0319831681179093556040519116919082907f8be0079c531659141344cd1fd0a4f28419497f9722a3daafe3b4186f6b6457e090600090a35050565b600060208284031215620000f757600080fd5b81516001600160a01b03811681146200010f57600080fd5b9392505050565b6128c680620001266000396000f3fe608060405234801561001057600080fd5b50600436106101a95760003560e01c80638456cb59116100f9578063d855957811610097578063f5c91a0811610071578063f5c91a08146103d4578063f60f24e4146103e7578063f825f143146103fa578063f94ef7941461042e57600080fd5b8063d85595781461039b578063e87a0806146103ae578063f2fde38b146103c157600080fd5b8063987ee156116100d3578063987ee15614610328578063abd2a13814610348578063b4acfe1c14610368578063cec004731461037b57600080fd5b80638456cb59146103075780638d8f2adb1461030f5780638da5cb5b1461031757600080fd5b80633f0ebcf8116101665780635f88a61b116101405780635f88a61b146102a857806364b4f751146102c55780637049aaf8146102d4578063715018a6146102ff57600080fd5b80633f0ebcf8146102695780633f4ba83a1461028e5780635c975abb1461029657600080fd5b80630e50cee5146101ae578063101c4233146101e657806316157f6c146102095780631a47767b1461021e5780631d2e4afd14610231578063332d56d714610244575b600080fd5b6101d16101bc366004611f9e565b60046020526000908152604090205460ff1681565b60405190151581526020015b60405180910390f35b6101d16101f4366004611f9e565b60076020526000908152604090205460ff1681565b61021c610217366004612063565b610441565b005b61021c61022c366004611f9e565b61069a565b61021c61023f366004612063565b6106fe565b610257610252366004611f9e565b610b82565b6040516101dd96959493929190612117565b61027c61027736600461216c565b610cd7565b6040516101dd96959493929190612196565b61021c610e4e565b600154600160a01b900460ff166101d1565b6102b7674563918244f4000081565b6040519081526020016101dd565b6102b7678ac7230489e8000081565b6002546102e7906001600160a01b031681565b6040516001600160a01b0390911681526020016101dd565b61021c610e60565b61021c610e72565b61021c610e82565b6001546001600160a01b03166102e7565b61033b610336366004611f9e565b610fd5565b6040516101dd9190612242565b61035b610356366004611f9e565b6112bd565b6040516101dd9190612345565b61021c610376366004611f9e565b61149b565b61038e61038936600461216c565b611502565b6040516101dd91906123a7565b61021c6103a93660046123ba565b611755565b61021c6103bc36600461240c565b6117cf565b61021c6103cf366004611f9e565b611995565b61021c6103e236600461216c565b6119d3565b61021c6103f5366004611f9e565b6119e5565b6102e761040836600461244c565b80516020818301810180516005825292820191909301209152546001600160a01b031681565b61021c61043c36600461216c565b611a3b565b3360009081526004602052604090205460ff166104795760405162461bcd60e51b815260040161047090612489565b60405180910390fd5b610481611b7b565b3360009081526003602052604090206004015460ff166104e35760405162461bcd60e51b815260206004820152601860248201527f55736572206163636f756e7420697320696e61637469766500000000000000006044820152606401610470565b60008251116105345760405162461bcd60e51b815260206004820152601860248201527f5265736f757263652063616e6e6f7420626520656d70747900000000000000006044820152606401610470565b600081511161057e5760405162461bcd60e51b8152602060048201526016602482015275416374696f6e2063616e6e6f7420626520656d70747960501b6044820152606401610470565b3360008181526006602090815260408083208054825160c0810184529586528584018881529286018790524260608701526080860185905260a08601859052600180820183559185529290932084516005840290910180546001600160a01b0319166001600160a01b039092169190911781559051919392909190820190610606908261253e565b506040820151600282019061061b908261253e565b506060820151600382015560808201516004909101805460a09093015115156101000261ff00199215159290921661ffff199093169290921717905560405133907ffe6d53c0306bf5f208be4bfe0761fd2c75bad11251442830a64f1e0918038b459061068d908690869086906125fe565b60405180910390a2505050565b6106a2611ba6565b6001600160a01b03811660009081526004602052604090205460ff166106da5760405162461bcd60e51b815260040161047090612489565b6001600160a01b03166000908152600360205260409020600401805460ff19169055565b610706611bd3565b61070e611b7b565b8160008151116107605760405162461bcd60e51b815260206004820152601860248201527f557365726e616d652063616e6e6f7420626520656d70747900000000000000006044820152606401610470565b60006001600160a01b031660058260405161077b9190612634565b908152604051908190036020019020546001600160a01b0316146107da5760405162461bcd60e51b81526020600482015260166024820152752ab9b2b93730b6b29030b63932b0b23c903a30b5b2b760511b6044820152606401610470565b3360009081526004602052604090205460ff161561083a5760405162461bcd60e51b815260206004820152601760248201527f5573657220616c726561647920726567697374657265640000000000000000006044820152606401610470565b60008251116108835760405162461bcd60e51b8152602060048201526015602482015274456d61696c2063616e6e6f7420626520656d70747960581b6044820152606401610470565b6002546040516370a0823160e01b8152336004820152678ac7230489e80000916001600160a01b0316906370a0823190602401602060405180830381865afa1580156108d3573d6000803e3d6000fd5b505050506040513d601f19601f820116820180604052508101906108f79190612650565b10156109595760405162461bcd60e51b815260206004820152602b60248201527f496e73756666696369656e742042534349414d20746f6b656e7320666f72207260448201526a32b3b4b9ba3930ba34b7b760a91b6064820152608401610470565b6002546040516323b872dd60e01b8152336004820152306024820152678ac7230489e8000060448201526001600160a01b03909116906323b872dd906064016020604051808303816000875af11580156109b7573d6000803e3d6000fd5b505050506040513d601f19601f820116820180604052508101906109db9190612669565b506040805160e081018252338152602080820186905281830185905242606083015260016080830152606460a083015282516000808252918101909352909160c0830191610a39565b6060815260200190600190039081610a245790505b509052336000908152600360209081526040909120825181546001600160a01b0319166001600160a01b03909116178155908201516001820190610a7d908261253e565b5060408201516002820190610a92908261253e565b5060608201516003820155608082015160048201805460ff191691151591909117905560a0820151600582015560c08201518051610ada916006840191602090910190611ec0565b50503360008181526004602052604090819020805460ff1916600117905551909150600590610b0a908690612634565b90815260405190819003602001812080546001600160a01b03939093166001600160a01b03199093169290921790915533907f92822564bab8864c3a47b34e8d23fbce5c46234eb5da261f94087b995ac0f33b90610b6b9086908690612686565b60405180910390a250610b7e6001600055565b5050565b600360205260009081526040902080546001820180546001600160a01b039092169291610bae906124b6565b80601f0160208091040260200160405190810160405280929190818152602001828054610bda906124b6565b8015610c275780601f10610bfc57610100808354040283529160200191610c27565b820191906000526020600020905b815481529060010190602001808311610c0a57829003601f168201915b505050505090806002018054610c3c906124b6565b80601f0160208091040260200160405190810160405280929190818152602001828054610c68906124b6565b8015610cb55780601f10610c8a57610100808354040283529160200191610cb5565b820191906000526020600020905b815481529060010190602001808311610c9857829003601f168201915b50505050600383015460048401546005909401549293909260ff909116915086565b60066020528160005260406000208181548110610cf357600080fd5b6000918252602090912060059091020180546001820180546001600160a01b039092169450919250610d24906124b6565b80601f0160208091040260200160405190810160405280929190818152602001828054610d50906124b6565b8015610d9d5780601f10610d7257610100808354040283529160200191610d9d565b820191906000526020600020905b815481529060010190602001808311610d8057829003601f168201915b505050505090806002018054610db2906124b6565b80601f0160208091040260200160405190810160405280929190818152602001828054610dde906124b6565b8015610e2b5780601f10610e0057610100808354040283529160200191610e2b565b820191906000526020600020905b815481529060010190602001808311610e0e57829003601f168201915b50505050600383015460049093015491929160ff80821692506101009091041686565b610e56611ba6565b610e5e611bfd565b565b610e68611ba6565b610e5e6000611c52565b610e7a611ba6565b610e5e611ca4565b610e8a611ba6565b6002546040516370a0823160e01b81523060048201526000916001600160a01b0316906370a0823190602401602060405180830381865afa158015610ed3573d6000803e3d6000fd5b505050506040513d601f19601f82011682018060405250810190610ef79190612650565b905060008111610f415760405162461bcd60e51b81526020600482015260156024820152744e6f20746f6b656e7320746f20776974686472617760581b6044820152606401610470565b6002546001600160a01b031663a9059cbb610f646001546001600160a01b031690565b6040516001600160e01b031960e084901b1681526001600160a01b039091166004820152602481018490526044016020604051808303816000875af1158015610fb1573d6000803e3d6000fd5b505050506040513d601f19601f82011682018060405250810190610b7e9190612669565b6110206040518060e0016040528060006001600160a01b0316815260200160608152602001606081526020016000815260200160001515815260200160008152602001606081525090565b6001600160a01b03821660009081526004602052604090205460ff166110585760405162461bcd60e51b815260040161047090612489565b6001600160a01b03808316600090815260036020908152604091829020825160e08101909352805490931682526001830180549293929184019161109b906124b6565b80601f01602080910402602001604051908101604052809291908181526020018280546110c7906124b6565b80156111145780601f106110e957610100808354040283529160200191611114565b820191906000526020600020905b8154815290600101906020018083116110f757829003601f168201915b5050505050815260200160028201805461112d906124b6565b80601f0160208091040260200160405190810160405280929190818152602001828054611159906124b6565b80156111a65780601f1061117b576101008083540402835291602001916111a6565b820191906000526020600020905b81548152906001019060200180831161118957829003601f168201915b50505050508152602001600382015481526020016004820160009054906101000a900460ff161515151581526020016005820154815260200160068201805480602002602001604051908101604052809291908181526020016000905b828210156112af578382906000526020600020018054611222906124b6565b80601f016020809104026020016040519081016040528092919081815260200182805461124e906124b6565b801561129b5780601f106112705761010080835404028352916020019161129b565b820191906000526020600020905b81548152906001019060200180831161127e57829003601f168201915b505050505081526020019060010190611203565b505050915250909392505050565b6001600160a01b0381166000908152600660209081526040808320805482518185028101850190935280835260609492939192909184015b828210156114905760008481526020908190206040805160c081019091526005850290910180546001600160a01b03168252600181018054929391929184019161133e906124b6565b80601f016020809104026020016040519081016040528092919081815260200182805461136a906124b6565b80156113b75780601f1061138c576101008083540402835291602001916113b7565b820191906000526020600020905b81548152906001019060200180831161139a57829003601f168201915b505050505081526020016002820180546113d0906124b6565b80601f01602080910402602001604051908101604052809291908181526020018280546113fc906124b6565b80156114495780601f1061141e57610100808354040283529160200191611449565b820191906000526020600020905b81548152906001019060200180831161142c57829003601f168201915b5050509183525050600382015460208083019190915260049092015460ff8082161515604084015261010090910416151560609091015290825260019290920191016112f5565b505050509050919050565b6114a3611ba6565b6001600160a01b03811660009081526004602052604090205460ff166114db5760405162461bcd60e51b815260040161047090612489565b6001600160a01b03166000908152600360205260409020600401805460ff19166001179055565b6115486040518060c0016040528060006001600160a01b031681526020016060815260200160608152602001600081526020016000151581526020016000151581525090565b6001600160a01b03831660009081526006602052604090205482106115a45760405162461bcd60e51b8152602060048201526012602482015271125b9d985b1a59081c995c5d595cdd08125160721b6044820152606401610470565b6001600160a01b03831660009081526006602052604090208054839081106115ce576115ce6126ab565b60009182526020918290206040805160c0810190915260059092020180546001600160a01b03168252600181018054929391929184019161160e906124b6565b80601f016020809104026020016040519081016040528092919081815260200182805461163a906124b6565b80156116875780601f1061165c57610100808354040283529160200191611687565b820191906000526020600020905b81548152906001019060200180831161166a57829003601f168201915b505050505081526020016002820180546116a0906124b6565b80601f01602080910402602001604051908101604052809291908181526020018280546116cc906124b6565b80156117195780601f106116ee57610100808354040283529160200191611719565b820191906000526020600020905b8154815290600101906020018083116116fc57829003601f168201915b50505091835250506003820154602082015260049091015460ff8082161515604084015261010090910416151560609091015290505b92915050565b61175d611ba6565b6001600160a01b03821660009081526004602052604090205460ff166117955760405162461bcd60e51b815260040161047090612489565b6001600160a01b0382166000908152600360209081526040822060060180546001810182559083529120016117ca828261253e565b505050565b6117d7611ba6565b6001600160a01b03831660009081526006602052604090205482106118335760405162461bcd60e51b8152602060048201526012602482015271125b9d985b1a59081c995c5d595cdd08125160721b6044820152606401610470565b6001600160a01b038316600090815260066020526040812080548490811061185d5761185d6126ab565b906000526020600020906005020190508060040160019054906101000a900460ff16156118cc5760405162461bcd60e51b815260206004820152601960248201527f5265717565737420616c72656164792070726f636573736564000000000000006044820152606401610470565b6004810180548315801561ffff19909216919091176101001790915561194557836001600160a01b03167f83d90dfabb9dd5929f37bedd596ec8b76fec40556dcf87a93c891c43ecbc35a2826001018360020160405161192d92919061273e565b60405180910390a261194084600a611ce7565b61198f565b836001600160a01b03167f97ae09733cca9eef7d02590cf0182b669e8cc6c208d7feaf18849faf71472632826001018360020160405161198692919061273e565b60405180910390a25b50505050565b61199d611ba6565b6001600160a01b0381166119c757604051631e4fbdf760e01b815260006004820152602401610470565b6119d081611c52565b50565b6119db611ba6565b610b7e8282611ce7565b6119ed611ba6565b6001600160a01b038116600081815260076020526040808220805460ff19166001179055513392917f03f154034e7a7daf65e9ab6553caa3e1116a362becf19bf0852f27b74aae80e391a350565b611a43611ba6565b6001600160a01b03821660009081526004602052604090205460ff16611a7b5760405162461bcd60e51b815260040161047090612489565b6001600160a01b0382166000908152600360205260409020600601548110611ada5760405162461bcd60e51b8152602060048201526012602482015271092dcecc2d8d2c840e4ded8ca40d2dcc8caf60731b6044820152606401610470565b6001600160a01b038216600090815260036020526040902060060180548190611b0590600190612779565b81548110611b1557611b156126ab565b90600052602060002001818381548110611b3157611b316126ab565b906000526020600020019081611b47919061278c565b5080805480611b5857611b58612867565b600190038181906000526020600020016000611b749190611f16565b9055505050565b600154600160a01b900460ff1615610e5e5760405163d93c066560e01b815260040160405180910390fd5b6001546001600160a01b03163314610e5e5760405163118cdaa760e01b8152336004820152602401610470565b600260005403611bf657604051633ee5aeb560e01b815260040160405180910390fd5b6002600055565b611c05611e96565b6001805460ff60a01b191690557f5db9ee0a495bf2e6ff9c91a7834c1ba4fdd244a5e8aa4e537bd38aeae4b073aa335b6040516001600160a01b03909116815260200160405180910390a1565b600180546001600160a01b038381166001600160a01b0319831681179093556040519116919082907f8be0079c531659141344cd1fd0a4f28419497f9722a3daafe3b4186f6b6457e090600090a35050565b611cac611b7b565b6001805460ff60a01b1916600160a01b1790557f62e78cea01bee320cd4e420270b5ea74000d11b0c9f74754ebdbfc544b05a258611c353390565b6001600160a01b03821660009081526004602052604090205460ff16611d1f5760405162461bcd60e51b815260040161047090612489565b6001600160a01b038216600090815260036020526040812060058101805491928492611d4c90849061287d565b90915550508115801590611dd257506002546040516370a0823160e01b8152306004820152674563918244f40000916001600160a01b0316906370a0823190602401602060405180830381865afa158015611dab573d6000803e3d6000fd5b505050506040513d601f19601f82011682018060405250810190611dcf9190612650565b10155b15611e575760025460405163a9059cbb60e01b81526001600160a01b038581166004830152674563918244f4000060248301529091169063a9059cbb906044016020604051808303816000875af1158015611e31573d6000803e3d6000fd5b505050506040513d601f19601f82011682018060405250810190611e559190612669565b505b826001600160a01b03167ffc577563f1b9a0461e24abef1e1fcc0d33d3d881f20b5df6dda59de4aae2c821826005015460405161068d91815260200190565b600154600160a01b900460ff16610e5e57604051638dfc202b60e01b815260040160405180910390fd5b828054828255906000526020600020908101928215611f06579160200282015b82811115611f065782518290611ef6908261253e565b5091602001919060010190611ee0565b50611f12929150611f50565b5090565b508054611f22906124b6565b6000825580601f10611f32575050565b601f0160209004906000526020600020908101906119d09190611f6d565b80821115611f12576000611f648282611f16565b50600101611f50565b5b80821115611f125760008155600101611f6e565b80356001600160a01b0381168114611f9957600080fd5b919050565b600060208284031215611fb057600080fd5b611fb982611f82565b9392505050565b634e487b7160e01b600052604160045260246000fd5b600082601f830112611fe757600080fd5b813567ffffffffffffffff8082111561200257612002611fc0565b604051601f8301601f19908116603f0116810190828211818310171561202a5761202a611fc0565b8160405283815286602085880101111561204357600080fd5b836020870160208301376000602085830101528094505050505092915050565b6000806040838503121561207657600080fd5b823567ffffffffffffffff8082111561208e57600080fd5b61209a86838701611fd6565b935060208501359150808211156120b057600080fd5b506120bd85828601611fd6565b9150509250929050565b60005b838110156120e25781810151838201526020016120ca565b50506000910152565b600081518084526121038160208601602086016120c7565b601f01601f19169290920160200192915050565b6001600160a01b038716815260c06020820181905260009061213b908301886120eb565b828103604084015261214d81886120eb565b60608401969096525050911515608083015260a0909101529392505050565b6000806040838503121561217f57600080fd5b61218883611f82565b946020939093013593505050565b6001600160a01b038716815260c0602082018190526000906121ba908301886120eb565b82810360408401526121cc81886120eb565b606084019690965250509115156080830152151560a0909101529392505050565b600081518084526020808501808196508360051b8101915082860160005b858110156122355782840389526122238483516120eb565b9885019893509084019060010161220b565b5091979650505050505050565b602080825282516001600160a01b03168282015282015160e060408301526000906122716101008401826120eb565b90506040840151601f198085840301606086015261228f83836120eb565b9250606086015160808601526080860151151560a086015260a086015160c086015260c08601519150808584030160e0860152506122cd82826121ed565b95945050505050565b60018060a01b0381511682526000602082015160c060208501526122fd60c08501826120eb565b90506040830151848203604086015261231682826120eb565b9150506060830151606085015260808301511515608085015260a0830151151560a08501528091505092915050565b6000602080830181845280855180835260408601915060408160051b870101925083870160005b8281101561239a57603f198886030184526123888583516122d6565b9450928501929085019060010161236c565b5092979650505050505050565b602081526000611fb960208301846122d6565b600080604083850312156123cd57600080fd5b6123d683611f82565b9150602083013567ffffffffffffffff8111156123f257600080fd5b6120bd85828601611fd6565b80151581146119d057600080fd5b60008060006060848603121561242157600080fd5b61242a84611f82565b9250602084013591506040840135612441816123fe565b809150509250925092565b60006020828403121561245e57600080fd5b813567ffffffffffffffff81111561247557600080fd5b61248184828501611fd6565b949350505050565b602080825260139082015272155cd95c881b9bdd081c9959da5cdd195c9959606a1b604082015260600190565b600181811c908216806124ca57607f821691505b6020821081036124ea57634e487b7160e01b600052602260045260246000fd5b50919050565b601f8211156117ca57600081815260208120601f850160051c810160208610156125175750805b601f850160051c820191505b8181101561253657828155600101612523565b505050505050565b815167ffffffffffffffff81111561255857612558611fc0565b61256c8161256684546124b6565b846124f0565b602080601f8311600181146125a157600084156125895750858301515b600019600386901b1c1916600185901b178555612536565b600085815260208120601f198616915b828110156125d0578886015182559484019460019091019084016125b1565b50858210156125ee5787850151600019600388901b60f8161c191681555b5050505050600190811b01905550565b60608152600061261160608301866120eb565b828103602084015261262381866120eb565b915050826040830152949350505050565b600082516126468184602087016120c7565b9190910192915050565b60006020828403121561266257600080fd5b5051919050565b60006020828403121561267b57600080fd5b8151611fb9816123fe565b60408152600061269960408301856120eb565b82810360208401526122cd81856120eb565b634e487b7160e01b600052603260045260246000fd5b600081546126ce816124b6565b8085526020600183811680156126eb576001811461270557612733565b60ff1985168884015283151560051b880183019550612733565b866000528260002060005b8581101561272b5781548a8201860152908301908401612710565b890184019650505b505050505092915050565b60408152600061275160408301856126c1565b82810360208401526122cd81856126c1565b634e487b7160e01b600052601160045260246000fd5b8181038181111561174f5761174f612763565b818103612797575050565b6127a182546124b6565b67ffffffffffffffff8111156127b9576127b9611fc0565b6127c78161256684546124b6565b6000601f8211600181146127fb57600083156127e35750848201545b600019600385901b1c1916600184901b178455612860565b600085815260209020601f19841690600086815260209020845b838110156128355782860154825560019586019590910190602001612815565b50858310156128535781850154600019600388901b60f8161c191681555b50505060018360011b0184555b5050505050565b634e487b7160e01b600052603160045260246000fd5b8082018082111561174f5761174f61276356fea26469706673582212203d6335de5e9f4cc772ea1c62f66159f0e14140ecd05c15903314b3da166573f264736f6c63430008140033",
  "linkReferences": {},
  "deployedLinkReferences": {}
}